:020000040800F2
:0800000000000120810000084E
:1000080080B483B000AF00237B607B68084A9342CA
:1000180094BF01230023DBB2002B03D07B6801339C
:100028007B60F2E700BF0C37BD465DF8047B704784
:100038003F420F0080B500AF0D4B1B6B0C4A43F0DD
:10004800020313630B4B1B680A4A23F00303136074
:10005800084B1B68074A43F001031360054B5B69B3
:10006800044A83F001035361FFF7CAFFF6E700BFB4
:100078000038024000040240DFF808D0FFF7DAFF3A
:08008800FEE700000000082063
:0400000508000008E7
:00000001FF
